:020000040800F2
:10000000001C00208D010008D92E0008EB290008F3
:1000100000000000000000000000000000000000E0
:10002000000000000000000000000000293000086F
:100030000000000000000000DD2E00086D31000807
:100040009F010008000000009F0100089F010008B8
:100050009F0100089F010008C3090008CD0900089E
:1000600000000000690900089F0100089F010008C6
:10007000BD060008FD3100089F01000800000000D7
:100080009F0100080000000000000000DD310008B2
:1000900000000000ED3100089F0100089F010008EA
:1000A000000000009F010008000000009F01000800
:1000B00000F002F800F03EF80CA030C80838241810
:1000C0002D18A246671EAB4654465D46AC4201D190
:1000D00000F030F87E460F3E0FCCB6460126334284
:1000E00000D0FB1AA246AB4633431847AC39000098
:1000F000CC390000103A02D378C878C1FAD8520738
:1001000001D330C830C101D504680C6070470000CD
:100110000023002400250026103A01D378C1FBD823
:10012000520700D330C100D50B6070471FB51FBD0B
:1001300010B510BD00F08FFA1146FFF7F7FF03F07E
:10014000F7FB00F0A7FA03B4FFF7F2FF03BC00F0DF
:10015000ADFA000070B505460C46164602E00FCC1D
:100160000FC5103E102EFAD2082E02D303CC03C5C1
:10017000083E042E07D301CC01C5361F03E02178C9
:100180002970641C6D1C761EF9D270BD074880472B
:1001900007480047FEE7FEE7FEE7FEE7FEE7FEE76B
:1001A00004480549054A064B70470000D93100084C
:1001B000B100000800160020001C002000180020DC
:1001C00000180020FEB5054610460C46184373D0B3
:1001D000AE468C460020AD1A01469C4167D3664668
:1001E000002701243D46B61A9D4102D313463A46E4
:1001F0002124654676462F04360C3E432D0CB61A54
:100200009D4104D3150C1B042B4312041034654686
:1002100076462F06360A3E432D0AB61A9D4104D370
:10022000150E1B022B4312020834654676462F0733
:1002300036093E432D09B61A9D4104D3150F1B0103
:100240002B431201241D65467646AF07B6083E4390
:10025000AD08B61A9D4104D3950F9B002B43920025
:10026000A41C65467646EF0776083E436D08B61A2D
:100270009D411AD392185B41641C16E00018764623
:1002800065464941B71A9D410191009009D36046E6
:10029000B11A98418E468446009801990025401C69
:1002A0006941DD0752082A435B08641EE6D57246A1
:1002B000634603B0F0BDFFE700200146C046C046DC
:1002C0002A462346F5E701E004C0091F0429FBD2B2
:1002D0008B0701D50280801CC90700D002707047CF
:1002E00000290BD0C30702D00270401C491E02290E
:1002F00004D3830702D50280801C891EE3E7002215
:10030000EEE70022DFE7002203098B422CD3030A29
:100310008B4211D300239C464EE003460B433CD452
:10032000002243088B4231D303098B421CD3030ABA
:100330008B4201D394463FE0C3098B4201D3CB01EA
:10034000C01A524183098B4201D38B01C01A52411A
:1003500043098B4201D34B01C01A524103098B421E
:1003600001D30B01C01A5241C3088B4201D3CB0009
:10037000C01A524183088B4201D38B00C01A5241EC
:1003800043088B4201D34B00C01A5241411A00D29C
:1003900001465241104670475DE0CA0F00D0494205
:1003A000031000D34042534000229C4603098B4275
:1003B0002DD3030A8B4212D3FC22890112BA030AFD
:1003C0008B420CD3890192118B4208D3890192117F
:1003D0008B4204D389013AD0921100E08909C30904
:1003E0008B4201D3CB01C01A524183098B4201D306
:1003F0008B01C01A524143098B4201D34B01C01AF1
:10040000524103098B4201D30B01C01A5241C30868
:100410008B4201D3CB00C01A524183088B4201D3D7
:100420008B00C01A5241D9D243088B4201D34B00F2
:10043000C01A5241411A00D20146634652415B1034
:10044000104601D34042002B00D549427047634615
:100450005B1000D3404201B50020C046C04602BD3B
:100460007047704770470000F0B5FF252D04C6099E
:10047000C209FF2704462E400137CB093E434840BE
:100480002A402B400746002A6BD0002B69D0AA4295
:1004900067D0AB4265D0002800DA32460125ED0571
:1004A00029432C4309022002090AD21A4B0C7F244B
:1004B000E31A434C000A7C44E35C7D2424041219B3
:1004C00014145B00A218884201D3521C00E04000C3
:1004D00049420C465C4324115C43DB016415E3187C
:1004E000040A5C43C502200D0C4644436419250AE6
:1004F0005D432303EC0C0D46654300030019EB1824
:100500004C42A34201D35B18401CD4052018002B99
:1005100007D05B00C91804D3401C002901D1400852
:1005200040003F2189048A4209D3002A08DC1106D1
:10053000090F04D0032149074018C00FC007F0BDC0
:1005400001224100120689187F2252069142F6D2FA
:1005500005214907C84201D59010F0BDFF20C00514
:10056000F0BD002F00DA32461648AA4207D2AB424D
:1005700005D21902090E17D0F80FC007F0BDFF25EC
:1005800063002D06AB42F9D84900A942F6D8AB4228
:1005900001D1A942F2D0A94201D1002101E06100BC
:1005A0004908D0050843F0BD1102090EFBD0FF2019
:1005B0000243D005F0BD0A460146104654E700004C
:1005C0009E3500000000C07F0102C21504D0012347
:1005D000DB071943002A0ADB9E239A1A02D4084635
:1005E000D0407047FF2241001206914201D90020FD
:1005F0007047C017C04370471F22030C02D10F225F
:1006000000041CD0030E01D10002083A030F01D1EF
:100610000001121F830F01D18000921E002801DB10
:100620004000521ED2055118021251181922904052
:1006300004D3491C002801D14908490008467047E5
:10064000C10FC90700D04042012292071143D3E7EE
:1006500001218907D0E7754600F024F8AE46050071
:1006600069465346C008C000854618B020B5FFF75C
:1006700097FD60BC00274908B6460026C0C5C0C526
:10068000C0C5C0C5C0C5C0C5C0C5C0C5403D490086
:100690008D46704710B50446C046C0462046FFF759
:1006A00052FD10BD004870479C15002001491820DC
:1006B000ABBEFEE7260002007047000010B50248FE
:1006C00000F06AFB10BD0000F813002070B504466E
:1006D000002520688068042108408008002829D06F
:1006E00020688068084004280BD1206880680221B7
:1006F0000840002805D1206880681021084321683F
:10070000886001F041F805460EE001F03DF8401B1D
:10071000022809D9A06B10210843A063E06B0121D6
:100720000843E063012070BD206880680421084010
:100730000028EAD10020F6E770B505466C6AA06B88
:1007400050210840002835D1A06B012149020843FF
:10075000A0632068C068032189020840002825D1D1
:10076000A07E002822D120680068082108400828BF
:100770001CD12068806804210840800800280DD121
:10078000206840680C21884321684860A06BFF21E5
:100790000131884301210843A06307E0A06B2021B9
:1007A0000843A063E06B01210843E063204600F0AA
:1007B000E3FA03E0206B016B2846884770BD70B5F3
:1007C00005466C6AA06B40210843A063E06B0421DE
:1007D0000843E063204600F0DEFA70BD70B50446C1
:1007E000656A284600F0D6FA70BD70B5044600254B
:1007F000206880688007800F01280ED1206800687B
:10080000C007C00F002806D12068C0680121C903B5
:100810000840884201D1012000E00020002837D0A4
:100820002068806805210840012800D100E00020F0
:1008300000280AD000BF2068806802210843216890
:10084000886003202168086009E0A06B102108433C
:10085000A063E06B01210843E063012070BD00F05C
:1008600093FF05460EE000F08FFF401B022809D9D8
:10087000A06B10210843A063E06B01210843E063F3
:100880000120EBE720688068C007C00F0028EAD18C
:100890000020E3E738B504460025002000902068DA
:1008A00080688007800F01280ED120680068C0078B
:1008B000C00F002806D12068C0680121C903084084
:1008C000884201D1012000E00020002843D12068A7
:1008D000806822490840002801D1012000E0002062
:1008E000002809D1A06B10210843A063E06B01210F
:1008F0000843E063012038BD206880680121084377
:1009000021688860164917480068FFF7FCFC0090D2
:1009100002E00098401E009000980028F9D100F0F5
:1009200033FF05460EE000F02FFF401B022809D9D7
:10093000A06B10210843A063E06B01210843E06332
:100940000120D8E720680068C007C00F0121484097
:1009500048400028E7D00020CDE7000017000080C5
:1009600040420F005400002010B5024800F0D2FCB5
:1009700010BD00003814002010B50446054A216857
:10098000881A1421FFF7BFFC800020640148083852
:10099000E06310BD0800024030B50124056CAC4096
:1009A000C56B6C60046863604468102C04D10468F3
:1009B000A2600468E16003E00468A1600468E2608A
:1009C00030BD10B5082000F0C1FD10BD10B52020CD
:1009D00000F0BCFD10BD72B600BFFEE7F8B50446DE
:1009E00076480078002874D00020744908700120EF
:1009F00073490870734801F079FC73480078002847
:100A000068D000207049087000BF002230E0430029
:100A10006E4DE95ACB171B0F5B181B115B006C4D19
:100A2000EB5A5B1C4500694E715BCD172D0F6D189D
:100A30002D116D00664E7353411C88B24300634D07
:100A4000E95ACB171B0F5B181B115D00614B5B5BF9
:100A50005B1C9DB243005D4EF15ACB171B0F5B1818
:100A60001B115E005B4B9D53411C88B2511C8AB226
:100A70007D2109018842CADB0120400256490968EC
:100A8000886201225549544800F072FB0020002181
:100A9000009140E0FF2C24D141004D4A515A0029D9
:100AA0000BD069460988002902D14D4A507001E0F7
:100AB0004B4A107001216A46118042004549895A0B
:100AC000002926D069464988002904D14449C870C4
:100AD00003E070E04EE0424A907001216A46518086
:100AE00017E061023A4A89184200895A002910D059
:100AF00061006A46515A002904D16200384BD2186D
:100B0000507002E06200364B9854012162006B463F
:100B10009952411C88B2FF28BCDBFF2C0DD1304814
:100B200000782F494978401A2E4908702C4881785E
:100B3000C078081A2B49487009E060002849085C11
:100B40006100274A89184978401A2649085500202B
:100B50000DE0002107E000224B021D4D5B1945000E
:100B60005A534A1C91B20229F5D3411C88B2FF287E
:100B7000EFDB1BE0194800881B4988420DDD01208E
:100B80001149087003201449096888627D22120106
:100B90000E49114800F0ECFA08E0002013490968FA
:100BA000086201220D490C4800F0E2FA054801F004
:100BB0006BFB0120F8BD00BFFCE700000000002037
:100BC0003C0000200C1500204200002058000020AE
:100BD000F80F0020F8110020F81300204400002036
:100BE000080000200C00002092090000C41400201E
:100BF000F8B504460D4600260020009001210907A3
:100C0000E06A884215D0E06A012812D0E06A022822
:100C10000FD0E06A03280CD0E06A042809D0E06A0B
:100C2000052806D0E06A062803D0E06A072800D02D
:100C300000BF00BF3420005D012801D10220F8BDB3
:100C400001213420015500BF20688068042108403C
:100C5000800800287BD14449686888425BD02068BE
:100C6000806A2A7801219140084321688862012125
:100C70000907E06A884229D0E06A012826D0E06AA4
:100C8000022823D0E06A032820D0E06A04281DD07F
:100C9000E06A05281AD0E06A062817D0E06A07281B
:100CA00014D0A868216849694907490F88420DD0C6
:100CB00020684069C008C000216848612068406918
:100CC000297A4907490F0843216848612868102894
:100CD00002D0286811283FD124488068296810294B
:100CE00001D1C90401E00121890508431F49886039
:100CF0002868102830D11E491E480068FFF703FB02
:100D00000A214843009002E00098401E009000989D
:100D10000028F9D120E02068806A2A7801219140DA
:100D20008843216888622868102802D02868112822
:100D300012D10E4880682968102902D1C90402E046
:100D400005E00121890588430849886004E0A06B1B
:100D500020210843A063012600BF00213420015553
:100D600000BF30466BE70000011000000027014083
:100D700040420F005400002010B50446034800F024
:100D800057FA01200249087010BD0000F813002036
:100D9000000000207047704710B5044620680068C6
:100DA00004210840042804D1206840680840042831
:100DB0000AD02068006808210840082840D120682F
:100DC0004068084008283BD1A06B1021084000284B
:100DD00003D1A06B49010843A0632068C0680321C8
:100DE00089020840002825D1A07E002822D1206851
:100DF00000680821084008281CD120688068042168
:100E00000840800800280DD1206840680C218843E4
:100E100021684860A06BFF2101318843012108430C
:100E2000A06307E0A06B20210843A063E06B0121D1
:100E30000843E0632046FFF79FFF0C20216808600D
:100E4000206800688021084080280ED12068406812
:100E50000840802809D1A06B49020843A0632046BE
:100E600000F008F9802021680860206800681021DF
:100E7000084010281AD1206840680840102815D171
:100E8000A06A012805D02068C068C007C00F0028EC
:100E900009D0E06B02210843E0631020216808605C
:100EA0002046FFF778FF10202168086010BD000081
:100EB00070B5044600260025002C01D1012070BD2C
:100EC000A06B002806D1E0630021342001552046A4
:100ED00000F0D2F8A06B1021084000287ED1002E2F
:100EE000FCD1206880680421084080080028F5D1E2
:100EF000A06B8901884302210843A06320688068B1
:100F00008007800F01280DD120680068C007C00F3E
:100F1000002805D12068C06889030840884201D1B3
:100F2000012000E0002000280FD12068C0681821AF
:100F30008843A16808432168C86020680069800070
:100F4000800861680843216808612068C0684749D3
:100F500008402168C860207E8003617EC903084381
:100F6000A17E49030843A16A012902D00121090396
:100F700000E000210843E16808432169022901D10A
:100F8000042100E0002108432421095D49000843B1
:100F90000543E07E01280ED1A07E002803D1012068
:100FA0000004054307E0A06B20210843A063E06B29
:100FB00001210843E063FF21C231E069884203D088
:100FC000216AE069084305432068C0682843216816
:100FD000C86001210907E06A884200E03EE014D0C1
:100FE000E06A012811D0E06A02280ED0E06A0328E6
:100FF0000BD0E06A042808D0E06A052805D0E06A32
:10100000062802D0E06A07280DD120684069C00890
:10101000C0002168486120684069A18D4907490FD7
:101020000843216848612068C06811490840A84207
:1010300008D10020E063A06B02218843012108430E
:10104000A06310E0A06B0221884310210843A06335
:10105000E06B01210843E063012604E0A06B10214E
:101060000843A0630126304629E700001902FEFF6D
:10107000E7FF3F837047000010B586B00446142197
:1010800001A8FFF73EF935492068884263D100BFC7
:1010900033488069491508433149886108468069A9
:1010A00049150840009000BF00BF00BF2C484069B0
:1010B000090208432A494861084640690121490458
:1010C0000840009000BF00BF00BF254840694900AC
:1010D00008432349486108464069012189040840C2
:1010E000009000BF00BF03200190029000200390F9
:1010F00001A90920C00600F039FA0220019003205E
:1011000002900020039001A9164800F02FFA16481B
:101110001649086000204860002114488160802141
:10112000C160490001618900416100218161C161A3
:1011300000F068F9002801D0FFF74DFC00BF0B4814
:101140002063446200BF002211460C2000F096FB91
:101150000C2000F085FB06B010BD0000002401400B
:10116000001002400004004808000240381400202B
:10117000F8B504460D46164600272068806804210D
:1011800008408008002848D100BF3420005D0128B5
:1011900001D10220F8BD01213420015500BF607E3D
:1011A000012803D02046FFF775FB0746002F35D1F5
:1011B000A06B1B490840FF2101310843A0630020B8
:1011C000E06300BF00213420015500BF1548216BAA
:1011D00088621548216BC8621448216B08631C2083
:1011E0002168086020684068102108432168486031
:1011F0002068C068012108432168C8602268114640
:10120000403133462A46206B00F02AF92068806876
:10121000042108432168886000E002273846B9E7C6
:10122000FEF1FFFF39070008DD070008BF070008CF
:1012300070B50446002500BF3420005D012801D1AF
:10124000022070BD01213420015500BF2046FFF768
:101250003DFA0546002D2DD12068C06840084000A9
:101260002168C860206B20304078022809D1206BAB
:1012700000F027F80546002D03D0A06B402108435D
:10128000A063206840681021884321684860002DD1
:1012900004D12046FFF7A9FA054602E02046FFF7F1
:1012A000A4FA002D06D1A06BFF2101318843012152
:1012B0000843A06300BF00213420015500BF284629
:1012C000BFE701462120405C022808D00420886343
:1012D00000BF00222020425400BF01207047086850
:1012E00000680E2290430A68106008680068400891
:1012F00040000A68106001200A6C9040CA6B506080
:1013000001222120425400BF00222020425400BF6D
:101310000020E3E770B50446E06B056820680668C6
:101320000420216C8840284000281BD00420304035
:10133000002817D02068006820210840002805D127
:101340002068006804218843216808600420216C1B
:101350008840E16B4860E06A002852D02046E16A8C
:1013600088474EE00220216C88402840002823D086
:101370000220304000281FD020680068202108404B
:10138000002808D1206800680A2188432168086085
:101390000121212001550220216C8840E16B486029
:1013A00000BF00212020015500BFA06A002828D0DE
:1013B0002046A16A884724E00820216C8840284004
:1013C00000281ED00820304000281AD0206800686D
:1013D0000E218843216808600120216C8840E16B60
:1013E00048600120A06301212120015500BF002198
:1013F0002020015500BF206B002802D02046216B21
:10140000884770BD70B504460025002C01D101202D
:1014100070BD022121200155206805680F48054054
:10142000A16860680843E16808432169084361696D
:101430000843A1690843E169084305432068056042
:101440002046FFF799FA0020A063012121200155D1
:101450000021202001550020DAE700000FC0FFFF27
:10146000F8B504460D4616461F460020009000BF02
:101470002020005D012801D10220F8BD012120209B
:10148000015500BF2120005D01282DD1022121201E
:1014900001550020A06320680068400840002168D2
:1014A00008603B46324629462046FFF775FAE06A57
:1014B000002806D0206800680E21084321680860D3
:1014C0000BE0206800680A21084321680860206852
:1014D00000680421884321680860206800680121B1
:1014E00008432168086006E000BF00212020015564
:1014F00000BF022000900098BFE7000070B50446CE
:1015000000F042F906462546681C002802D005482E
:1015100000782D1800BF00F037F9801BA842FAD3DD
:1015200070BD00005000002010B50446082C05D006
:10153000202C07D1044800F0A7FE03E0024800F089
:10154000A3FE00BF00BF10BD5415002010B5044617
:10155000054840692040002804D0034844612046E3
:10156000FFF7E2FF10BD00000004014078B503461C
:101570000022DDE0012696400C683440002C7DD02E
:101580004D68012D08D04D68022D05D04D68112DF4
:1015900002D04D68122D18D1986856000325B54029
:1015A0000646AE4330465600CD68B54028439860A5
:1015B0005868012595400646AE43304610264D68D2
:1015C00035402D09954028435860D86856000325BA
:1015D000B5400646AE43304656008D68B5402843B8
:1015E000D8604D68022D02D04D68122D15D1D50856
:1015F000AE001D462035A8595507EE0E0F25B54003
:101600000646AE4330465607F60E0D69B5402843F0
:10161000D508AD001E4620367051186856000325C7
:10162000B5400646AE4330460D79AD07AD0F5600C6
:10163000B54028431860012636074D683540B5424D
:1016400075D100BF3D4DAD69012635433B4EB561B7
:101650003546AD69ED07ED0F009500BF00BF384D71
:101660009608B600A85995072E0F0F25B5400646D7
:10167000AE4330460925ED06AB4200E057E001D10C
:1016800000250FE02F4DAB4201D101250AE02E4D80
:10169000AB4201D1022505E02C4DAB4201D103251F
:1016A00000E005259607360FB5402843244D9608DF
:1016B000B600A851264D28680546A54328460126B0
:1016C00036044D683540B54202D1054625432846CB
:1016D0001F4D286068680546A54328460126760404
:1016E0004D683540B54202D1054625432846184D80
:1016F0006860A8680546A5432846012636054D685A
:101700003540B54202D1054625432846104DA86014
:10171000E8680546A5432846012676054D6835400C
:10172000B54202D1054625432846094DE860521CC2
:101730000D68D540002D00D01CE778BD0010024098
:10174000080001400004004800080048000C004860
:1017500000040140024613690B40002B01D0012018
:1017600000E00020704710B5426913460B401B048F
:101770000C4694432343836110BD002A01D081614C
:1017800000E0816270470000014800687047000077
:1017900048000020034800680349097840180149BF
:1017A00008607047480000205000002010B506482F
:1017B00000681021084304490860002000F006F882
:1017C00000F02EF8002010BD0020024070B5044645
:1017D000104801787D20C000FEF795FD0646314691
:1017E0000D480068FEF78FFD054600F037FC002825
:1017F00001D0012070BD042C07D200222146501ECA
:1018000000F03CF80548046001E00120F2E7002008
:10181000F0E7000050000020540000204C000020A1
:1018200008B500BF0D488069012108430B49886154
:1018300008468069C007C00F009000BF00BF00BF0E
:101840000846C069090408430449C8610846C069DC
:1018500009040840009000BF00BF08BD001002400E
:101860000146002905DBCB06DB0E01229A40024B24
:101870001A6000BF7047000000E100E070B5044648
:101880000D4616462946204602F016F870BD0000A7
:1018900070B504460D46002C01D1012070BD5248A0
:1018A0000068C007C00FA8420ED24F480068400829
:1018B000400028434C49086008460068C007C00F34
:1018C000A84201D00120E9E702212068084002284F
:1018D00014D1042120680840042807D143484068F7
:1018E0000721090288434018404948603F48406842
:1018F000F0218843A16808433C4948602078C0072C
:10190000C00F00283BD06068012808D13748006824
:10191000012149040840002815D10120BEE7606874
:10192000022808D1314800680121490608400028F2
:1019300009D10120B2E72D480068022108400028A3
:1019400001D10120AAE72948406880088000616829
:10195000084326494860FFF717FF064607E0FFF7F0
:1019600013FF801B2249884201D9032096E71F48B4
:1019700040680C210840616889008842EFD11A480C
:101980000068C007C00FA8420ED917480068400879
:10199000400028431449086008460068C007C00F8B
:1019A000A84201D0012079E70421206808400428DA
:1019B00008D10E484068072109028843E1680843BE
:1019C0000A49486000F01AF808494968F0221140B5
:1019D0000909084A515CC840074908600020FFF720
:1019E000F5FE00205AE700000020024000100240EF
:1019F00088130000403A000854000020F0B589B078
:101A000027A001460EC9C06805AC0EC4089028A0E6
:101A100001460EC9C06801AC0EC404900024002524
:101A20000027002600200090254844680C20204014
:101A300000282DD0042802D0082828D102E021480F
:101A4000009028E00F2080042040800C05A90E5C47
:101A50001B48C06A0007000F01A90D5C01200004AB
:101A600020400121090488420AD12A460023154852
:101A70001946FEF7A7FB314601F006FF074604E0D2
:101A80001148314601F000FF0746009703E000BF10
:101A90000E48009000BF00BF009809B0F0BD0000E4
:101AA00002030405060708090A0B0C0D0E0F10109F
:101AB0000102030405060708090A0B0C0D0E0F109E
:101AC000001002400024F40000093D0000127A00DA
:101AD000FEB50446002C01D10120FEBD2078C007D0
:101AE000C00F002871D0FC4840680C210840042831
:101AF0000BD0F94840680840082812D1F6484068E1
:101B000001210904084088420BD1F34800680121F3
:101B10004904084000286BD06068002868D1012083
:101B2000DBE700BF6068012807D1EB4800680121AE
:101B300009040843E849086031E0606800280ED1D4
:101B4000E5480068012109048843E3490860084624
:101B50000068012189048843DF4908601FE060684C
:101B600005280ED1DC480068012189040843DA49C0
:101B7000086008460068012109040843D649086046
:101B80000DE0D5480068012109048843D249086066
:101B900008460068012189048843CF49086000BFD6
:101BA0006068002812D0FFF7EFFD054606E0FFF75A
:101BB000EBFD401B642801D903208EE7C64800686E
:101BC0000121490408400028F1D011E0FFF7DCFDB5
:101BD000054606E0FFF7D8FD401B642801D9032025
:101BE0007BE7BD4800680121490408400028F1D185
:101BF000022120680840022861D1B74840680C21C2
:101C0000084000280BD0B4484068084008281BD181
:101C1000B1484068012109040840002814D1AE48A9
:101C2000006802210840002804D0E068012801D0A3
:101C3000012052E7A8480068F82188432169C900BB
:101C40000843A54908603AE0E068002820D0A2488F
:101C5000006801210843A0490860FFF795FD05468B
:101C600006E0FFF791FD401B022801D9032034E76D
:101C700099480068022108400028F2D09648006880
:101C8000F82188432169C90008439349086016E098
:101C900091480068400840008F490860FFF774FDD4
:101CA000054606E0FFF770FD401B022801D903201E
:101CB00013E789480068022108400028F2D1082172
:101CC00020680840082831D1E069002817D08248F0
:101CD000406A0121084380494862FFF755FD0546E7
:101CE00006E0FFF751FD401B022801D90320F4E66E
:101CF0007948406A022108400028F2D016E0764870
:101D0000406A4008400074494862FFF73DFD0546BF
:101D100006E0FFF739FD401B022801D90320DCE66D
:101D20006D48406A022108400028F2D10421206851
:101D30000840042873D1002001906748C0698906D3
:101D4000084000280ED100BF6348C06908436249BB
:101D5000C8610846C06909040840009000BF00BF80
:101D6000012001905D480068FF21013108400028F2
:101D700016D15A480068084358490860FFF704FD27
:101D8000054606E0FFF700FD401B642801D903204B
:101D9000A3E652480068FF21013108400028F1D035
:101DA00000BFA068012806D14B48006A0121084302
:101DB000494908622BE0A06800280CD14648006A17
:101DC00040084000444908620846006A04218843EC
:101DD000414908621BE0A06805280CD13E48006A12
:101DE000042108433C4908620846006A012108436F
:101DF000394908620BE03848006A4008400036491B
:101E000008620846006A042188433349086200BF1B
:101E1000A068002813D0FFF7B7FC054608E02BE0C8
:101E2000FFF7B2FC401B2E49884201D9032054E63B
:101E30002948006A022108400028F1D011E0FFF78C
:101E4000A3FC054607E0FFF79FFC401B244988429E
:101E500001D9032041E62048006A022108400028F9
:101E6000F1D10198012806D11B48C0690121090759
:101E700088431949C86100BF102120680840102814
:101E800060D1606901282DD11348406B04210843BB
:101E9000114948630846406B012108430E494863D5
:101EA000FFF772FC054606E0FFF76EFC401B0228B8
:101EB00001D9032011E60848406B022108400028A0
:101EC000F2D00548406BF8218843A169C900084356
:101ED0000149486336E000000010024000700040F5
:101EE000881300006069401D00280FD15A48406BDC
:101EF00004218843584948630846406BF8218843C9
:101F0000A169C9000843544948631BE05248406B2B
:101F100004210843504948630846406B400840008C
:101F20004863FFF731FC054606E0FFF72DFC401B38
:101F3000022801D90320D0E54748406B0221084020
:101F40000028F2D1206A00284FD0434840680C2175
:101F50000840082864D0206A022847D13E4800681B
:101F60000121090688433C490860FFF70DFC05463E
:101F700006E0FFF709FC401B022801D90320ACE56D
:101F8000354800680121490608400028F1D100BF0A
:101F90003148C06A00090001E16A08432E49C8625D
:101FA000616AA06A08432C4949683D2212049143A2
:101FB00008432949486000BF084600680121090616
:101FC000084325490860FFF7DFFB054606E0FFF7F9
:101FD000DBFB401B022801D903207EE51E48006878
:101FE0000121490608400028F1D033E01A48006872
:101FF00001210906884318490860FFF7C5FB05461B
:1020000006E0FFF7C1FB401B022801D9032064E56D
:10201000114800680121490608400028F1D119E063
:10202000206A012800D158E50B484668C76A01209C
:1020300000043040616A88420AD13907090FE06A1A
:10204000814205D10F2080043040A16A884201D02E
:10205000012042E5002040E50010024070B5044632
:102060002546681E0949884201D901200CE0681EF6
:10207000074948610321081F01F01EFC00200449A4
:10208000886107200861002070BD0000FFFFFF008D
:1020900000E000E07047704730B502460B4600BFD5
:1020A0003C20805C012801D1022030BD01253C206C
:1020B000855400BF02253D2085541068446810688F
:1020C000816870252046A8430446186804431068B8
:1020D00044600D4D1068A84203D00C4D1068A84212
:1020E00007D180250846A843014658680143106877
:1020F000816001253D20855400BF00253C2085548A
:1021000000BF0020D1E70000002C01400004004087
:1021100010B50446002C01D1012010BD3D20005D0A
:10212000002805D100213C200155204600F022F86E
:1021300002213D200155211D206801F067F8012191
:102140004620015500BF3E2001553F20015540204B
:1021500001554120015500BF00BF422001554320D9
:102160000155442001554520015500BF3D20015532
:102170000020D2E738B5044629492068884216D1A4
:1021800000BF28488069C914084326498861084669
:102190008069C9140840009000BF00BF00221146AA
:1021A0000D20FFF76BFB0D20FFF75AFB36E01E49B1
:1021B0002068884216D100BF1A48C06989150843B3
:1021C0001849C8610846C06989150840009000BFD9
:1021D00000BF002201211320FFF750FB1320FFF75F
:1021E0003FFB1BE011492068884217D100BF0D4812
:1021F00080690121490408430A49886108468069C9
:10220000012149040840009000BF00BF0022114690
:102210001520FFF733FB1520FFF722FB38BD000028
:10222000002C01400010024000200040004401400A
:1022300001463D20405C012801D001207047022367
:102240003D2043540E4B0868984203D00D4B08685C
:1022500098420CD1086880684207520F062A0CD0B9
:1022600008680068012318430B68186005E00868D7
:102270000068012318430B6818600020DEE70000A7
:10228000002C01400004004001463D20405C012834
:1022900001D00120704702233D2043540868C068E4
:1022A000012318430B68D8600E4B0868984203D08E
:1022B0000D4B086898420CD1086880684207520F9D
:1022C000062A0CD008680068012318430B681860C0
:1022D00005E008680068012318430B6818600020B7
:1022E000D8E70000002C01400004004001460868C7
:1022F000C068400840000A68D06000BF0868006AF3
:102300000A4A104000280BD10868006A9210104059
:10231000002805D108680068400840000A6810607D
:1023200000BF01223D2042540020704711110000DF
:10233000F8B504460D4600BF3C20005D012801D1E0
:102340000220F8BD01213C20015500BF02213D20A3
:102350000155206886687721304688430646FF216C
:10236000090230468843064620688660286850285F
:1023700034D00CDC202851D004DC00284CD01028AC
:1023800052D14AE030284AD040284DD13AE0602866
:102390002ED0702807D001210903401A02D0401A1C
:1023A00042D10DE041E0EB686A68A968206800F05E
:1023B00075FF20688668772006432068866034E0D1
:1023C000EB686A68A968206800F068FF2068806888
:1023D0000121890308432168886026E0EA6869686A
:1023E000206801F0ADF85021206800F065FF1CE086
:1023F000EA686968206801F0BCF86021206800F094
:102400005BFF12E0EA686968206801F099F84021F2
:10241000206800F051FF08E000BF00BF00BF29683E
:10242000206800F049FF00E000BF00BF01213D200F
:10243000015500BF00213C20015500BF002080E76E
:10244000704710B504462068006902210840400822
:1024500000281CD02068C06808404008002816D01A
:10246000481F216808610120207720688069800763
:10247000800F002803D02046FFF7E2FF05E020464A
:1024800000F0F2F8204600F0BDF900202077206827
:10249000006904210840800800281DD02068C06819
:1024A00008408008002817D0C8432168086102202E
:1024B000207720688069032109020840002803D0A2
:1024C0002046FFF7BDFF05E0204600F0CDF820468E
:1024D00000F098F900202077206800690821084062
:1024E000C00800281CD02068C0680840C008002828
:1024F00016D0C84321680861042020772068C0698D
:102500008007800F002803D02046FFF799FF05E0E1
:10251000204600F0A9F8204600F074F9002020774A
:102520002068006910210840000900281DD020689B
:10253000C06808400009002817D0C8432168086116
:10254000082020772068C06903210902084000287C
:1025500003D02046FFF774FF05E0204600F084F822
:10256000204600F04FF90020207720680069C0075E
:10257000C00F01214840484000280CD02068C068A6
:10258000084048404840002805D0C81E216808611E
:10259000204600F039F92068006980210840C00910
:1025A00000280BD02068C0680840C009002805D06A
:1025B000C843216808612046FFF76CFD2068006968
:1025C00040210840800900280BD02068C0680840DE
:1025D0008009002805D0C84321680861204600F022
:1025E00003FA2068006920210840400900280BD028
:1025F0002068C06808404009002805D0C843216809
:1026000008612046FFF747FD10BD000010B586B0F9
:102610000446142101A8FDF774FE11492068884280
:102620001CD100BF0F484069491308430D49486158
:1026300008464069012149040840009000BF00BFDE
:10264000C0200190022002900020039004900120FD
:10265000059001A90920C006FEF788FF06B010BD4D
:102660000004004000100240704770B504460D465B
:10267000164600BF3C20005D012801D1022070BD3C
:1026800001213C20015500BF002E06D0042E1BD096
:10269000082E33D00C2E62D147E02946206800F086
:1026A00017FE206880690821084321688861206836
:1026B00080690421884321688861206880692969CC
:1026C0000843216888614BE02946206800F04EFEEF
:1026D000206880690121C902084321688861206857
:1026E00080690121890288432168886120688069A6
:1026F0002969090208432168886131E02946206878
:1027000000F08CFE2068C069082108432168C86178
:102710002068C069042188432168C8612068C069B5
:10272000296908432168C8611AE02946206800F039
:10273000CBFE2068C0690121C90208432168C86135
:102740002068C0690121890288432168C861206826
:10275000C0692969090208432168C86100E000BF17
:1027600000BF00BF00213C20015500BF002086E7CC
:1027700010B50446002C01D1012010BD3D20005DA4
:10278000002805D100213C200155204600F022F808
:1027900002213D200155211D206800F037FD012157
:1027A0004620015500BF3E2001553F2001554020E5
:1027B00001554120015500BF00BF42200155432073
:1027C0000155442001554520015500BF3D200155CC
:1027D0000020D2E708B5094A016891420DD100BF37
:1027E0000749C96902221143054AD1611146C969E5
:1027F00002221140009100BF00BF08BD000400404C
:10280000001002407047000070B504466A49206815
:10281000096888427ED169480078002825D1684837
:102820000078FF2821D167480078FF281DD166492C
:102830000878FDF70DFF0646644801683046FDF74D
:1028400013FE0546FDF7C0FE614908805E494878E1
:10285000FDF7FEFE06465D4801683046FDF704FEC2
:102860000546FDF7B1FE5A494880594800881428AA
:1028700002DA00205649088055484088142802DAB8
:1028800000205349488053480088514909888842AC
:102890001CDA5148008864280BDA4F480088401C35
:1028A0004D490880012204210920C006FEF765FF7A
:1028B0001CE0632047490880002047490880002227
:1028C00004210920C006FEF758FF0FE040480088A9
:1028D000002805DD3F480088401E3E49088005E08D
:1028E000002204210920C006FEF747FF394840882E
:1028F0003749498888421EDA3748408864280DDA0B
:1029000035484088401C3449488001221021092064
:10291000C00600E01FE0FEF730FF1CE063202D49F9
:10292000488000202C494880002210210920C00640
:10293000FEF723FF0FE026484088002805DD2548E4
:102940004088401E2349488005E0002210210920CC
:10295000C006FEF712FF214920680968884229D184
:1029600020210920C006FEF7F5FE002805D11C48ED
:102970000088401C1A49088007E000201849088098
:1029800018480088401C1749088008210920C00603
:10299000FEF7E0FE002805D111484088401C104990
:1029A000488007E00F484088401C0E4948800020BE
:1029B0000B49488070BD00000C150020000000206D
:1029C00036000020370000200C00002018000020F6
:1029D0001C000020200000202400002054150020AE
:1029E0002E00002032000020704700BFFEE70000EC
:1029F00010B5624800887D210901884203DC5F48E8
:102A00004088884214DDFF205D49087000200AE0FC
:102A100000215C4A11544200584B995242005A4BD3
:102A20009952411CC8B20228F2D35848FFF75EFC05
:102A3000574800885749884203DC554840888842F7
:102A40001BDD5248FFF752FC51480088514988422B
:102A500001DC012000E000200446FF204849087006
:102A60004D480470002005E000214200484B995277
:102A7000411CC8B20228F7D37FE0454800881028DF
:102A800003DC43484088102877DD43480078FF285E
:102A900073D120210920C006FEF75CFE01286CD10D
:102AA00008210920C006FEF755FE012865D13849E6
:102AB0000988102901DC012100E0002108460021DD
:102AC0004200334B99522E490978FF2920D12D49D4
:102AD000095C002902D0012919D105E02949095CC6
:102AE000491C284A115412E064214200264B995295
:102AF000002107E0814203D000224B00224CE25229
:102B00004A1CD1B20229F5D31D49087000BF33E039
:102B100000211A4A11805180002802D001282AD1B0
:102B200014E01E49164A12788A5C1D49144B1B7822
:102B3000C95C8A4209DD1949114A1278895C491E2B
:102B4000CAB216490E4B1B78CA5414E013490C4AFA
:102B500012788A5C13490A4B1B78C95C8A4209DAED
:102B60000E49074A1278895C491CCAB20B49044BCA
:102B70001B78CA5400BF00BF00BF10BD3200002048
:102B800036000020290000201C00002054150020E1
:102B90002E000020EE02000037000020010000207F
:102BA0003C3A00083E3A00080EB500200090019023
:102BB00002902348234908600020486000212148F2
:102BC0008160C16001210161042141610021017620
:102BD00041768176C176C1610121890201620021BD
:102BE00024300170012124388162FEF761F9002848
:102BF00001D0FDF7F0FE00200090012000030190BD
:102C00000004029069460F48FDF7F2FF002801D04A
:102C1000FDF7E1FE0120009069460A48FDF7E8FF54
:102C2000002801D0FDF7D7FE09200090694605482D
:102C3000FDF7DEFF002801D0FDF7CDFE0EBD000040
:102C400000240140F813002008B500BF0A4840697D
:102C5000012108430849486108464069C007C00F80
:102C6000009000BF00BF002211460920FEF706FEBB
:102C70000920FEF7F5FD08BD0010024000B587B041
:102C8000142102A8FDF73DFB00BF2E484069012139
:102C9000890508432B494861084640690121890597
:102CA0000840019000BF00BF00BF2648406949119D
:102CB0000843244948610846406901214904084005
:102CC000019000BF00BF00BF1E4840694900084393
:102CD0001C49486108464069012189040840019067
:102CE00000BF00BF002218490920C006FEF745FDBD
:102CF00015480290012003900220049000200590C6
:102D000002A90920C006FEF731FC282002900F48D6
:102D100003900020049002A90920C006FEF726FCBB
:102D2000002211460620FEF7A9FD0620FEF798FDB9
:102D3000002211460720FEF7A1FD0720FEF790FDB7
:102D400007B000BD00100240140600000000211072
:102D500010B50A480A4908602F2048600021084839
:102D600081600849C1600021016180218161FFF714
:102D7000CFF9002801D0FDF72EFE10BD0020004045
:102D80000C150020E703000010B50B480B49086044
:102D90002F2048600021094881600949C160002155
:102DA0000161416180218161FFF7B2F9002801D002
:102DB000FDF711FE10BD0000004401405415002035
:102DC000E703000000B587B0002003900490059051
:102DD0000690019002901748174908602F2048601C
:102DE0000021154881601549C160002101614161E0
:102DF00080218161FFF78CF9002801D0FDF7EBFD00
:102E000001200003039003A90B48FFF791FA002863
:102E100001D0FDF7E0FD202001900020029001A9E3
:102E20000548FFF739F9002801D0FDF7D4FD07B0B8
:102E300000BD0000002C01407C140020FFFF0000BA
:102E400000B589B00020079008901C216846FDF766
:102E500058FA1E481E4908602F20486000211C486F
:102E600081601C49C1600021016180218161FFF7FF
:102E70007FFC002801D0FDF7AEFD002007900890F0
:102E800007A91348FFF708F9002801D0FDF7A3FDB3
:102E9000602000900020019002900490002269467A
:102EA0000B48FFF7E2FB002801D0FDF794FD042258
:102EB00069460748FFF7D9FB002801D0FDF78BFDD5
:102EC0000348FFF7A3FB09B000BD00000004004069
:102ED000C4140020E703000000BFFEE770470000B5
:102EE00070B549480078FF287DD148480078FF2810
:102EF00079D1FDF773FD002857D045490878FDF7D3
:102F0000A7FB0546434801682846FDF7ADFA04468D
:102F1000FDF75AFB404908803D494878FDF798FB8A
:102F200005463C4841682846FDF79EFA0446FDF7F1
:102F30004BFB3949488008460088498888420ADDA9
:102F40003548008834494988401A0A2803D90020A6
:102F50003249087013E0304840882F490988884278
:102F60000ADD2D4840882C490988401A0A2803D9CF
:102F700001202A49087002E0FF20284908702748EC
:102F80000078002812D124490888FDF761FB054626
:102F9000234900F0FBFC0446FDF716FB21490968B4
:102FA000486310201F49096808622BE01B4800781D
:102FB000012813D118494888FDF74AFB05461849EE
:102FC00000F0E4FC0446FDF7FFFA1649096888633F
:102FD000012014490968086214E004E00020114946
:102FE000096808620EE009480078FF280ADA0748F5
:102FF000007800F01BF8FF200849087000200949FC
:103000000968086270BD000036000020370000200B
:103010000C000020100000203E00002028000020AE
:1030200014AEBF40C41400207047000070B50446C1
:103030002046FDF7D3FC4048007800287AD13F486D
:103040000078002876D000203C4908703C48007881
:10305000002802D0012863D134E03A4800880828CB
:1030600008D937480078401C354908700020364997
:10307000085526E032206100344A5052002007E013
:10308000A04203D000214200304B9952411CC8B2EB
:103090000228F5D32E48005D2E49095D884210DDD7
:1030A0002B48005D2C49095D88420ADD2848005DF7
:1030B0002A49095D884204DA2548005D801C2549BB
:1030C00008552DE01F480088102819D900206100FC
:1030D0001E4A50521A4908701A490880FF20204998
:1030E00008701949095D1B4A125D881AFDF7A8FA94
:1030F00005461C49FDF7B8F9A1001B4A50500EE0E7
:1031000064206100114A50521148005D0E49095D6A
:10311000884204DD0E48005D801C0B49085500BF45
:1031200000BF0F480078FF2804DA06480088401CDA
:103130000449088070BD0000000000203C00002011
:103140003800002006000020030000201C000020A2
:103150000C000020010000203C3A00083E3A000824
:10316000370000200000C8421000002010B5FEF714
:1031700011FB10BD00B591B0302105A8FDF7C1F8D5
:1031800000200190029003900490112005900120EE
:1031900006900A9010200B9002200D90C1030E9112
:1031A00041040F910021109105A8FEF791FC002821
:1031B00001D0FDF710FC07200190022002900020B2
:1031C00003900490012101A8FEF762FB002801D0C2
:1031D000FDF701FC11B000BD7047000010B50248BA
:1031E000FFF72FF910BD00000C15002010B50248A4
:1031F000FFF727F910BD00005415002010B5024854
:10320000FFF71FF910BD00007C14002010B5026804
:103210001D4B984202D01D4B984205D17024134695
:10322000A3431A464B681A43174B98420BD0174BCF
:10323000984208D0164B984205D0164B984202D0BF
:10324000154B984206D1032424021346A3431A4681
:10325000CB681A4380241346A3434C6923431A4680
:1032600002608B68C3620B688362074B984205D08B
:10327000084B984202D0084B984201D10B69036376
:103280000123436110BD0000002C014000040040F8
:1032900000200040004401400048014070B50C4649
:1032A0008168FF2636020D46B54329461D021543A7
:1032B00025432943816070BD10B50A46816870249A
:1032C0000B46A3431946072313431943816010BDDE
:1032D00070B5056A6D086D000562026A436884690D
:1032E00070262546B5432C46A408A4000D682C433F
:1032F00002261546B5432A468D682A43184DA84232
:1033000000D107E0174DA84200D103E0164DA842B6
:103310000AD100BF08261546B5432A46CD682A4380
:1033200004261546B5432A460D4DA84205D00D4D3D
:10333000A84202D00C4DA8420CD1FF2601361D46F2
:10334000B5432B4676001D46B5432B464D692B43AE
:103350008D692B43436084614D684563026270BD93
:10336000002C0140004401400048014070B5056A4E
:103370001026B5430562026A43688469072636034E
:103380002546B5432C46032636022546B5432C4632
:103390000D682D022C4320261546B5432A468D681C
:1033A0002D012A431A4DA84200D107E0194DA84229
:1033B00000D100BF184DA8420BD10AE08026154667
:1033C000B5432A46CD682D012A4340261546B5430C
:1033D0002A460F4DA84205D00E4DA84202D00E4DF0
:1033E000A8420ED10126B6021D46B5432B467600F3
:1033F0001D46B5432B464D69AD002B438D69AD008D
:103400002B43436084614D688563026270BD000098
:10341000002C0140004401400048014070B5056A9D
:10342000FF260136B5430562026A4368C469702607
:103430002546B5432C46A408A4000D682C4301265C
:1034400076021546B5432A468D682D022A431B4D48
:10345000A84200D107E01A4DA84200D100BF194D83
:10346000A8420CD10BE00126F6021546B5432A46C8
:10347000CD682D022A4376101546B5432A460F4DD6
:10348000A84205D00E4DA84202D00E4DA8420ED142
:10349000012636031D46B5432B4676001D46B5432F
:1034A0002B464D692D012B438D692D012B43436024
:1034B000C4614D68C563026270BD0000002C01400C
:1034C000004401400048014070B5056A01263603FA
:1034D000B5430562046A4368C26907263603154688
:1034E000B5432A46032636021546B5432A460D68DB
:1034F0002D022A43012676032546B5432C468D68C6
:103500002D032C430B4DA84205D00B4DA84202D0F1
:103510000A4DA84207D10126B6031D46B5432B46E6
:103520004D69AD012B434360C2614D68056404627F
:1035300070BD0000002C01400044014000480140E3
:1035400070B50B461446026A056A6D086D00056287
:103550008169F0260D46B5432946250129430A26EF
:103560001546B5432A4615461D432A468161026227
:1035700070BD70B50B461446056A1026B54305624A
:103580008169026A0F2636030D46B5432946250395
:103590002943A0261546B5432A461D012A438161C9
:1035A000026270BD0FB410B5149C0298C462002072
:1035B0000299086210BC08BC04B0184710B5A2B04C
:1035C00000200DE0002107E000224B02A44C1B1953
:1035D00044001A53421C90B20228F5D3411C88B211
:1035E000FF28EFDB00209F4908708870FF2048709B
:1035F000FF219C48C1703D229B4910A8FCF7AAFD01
:1036000099482030417F18A8417797482030817F22
:1036100018A8817794483E3041781FA80230417045
:1036200091483E3081781FA8023081708E483E302C
:10363000C1781FA80230C1708B484030817820A823
:10364000817089484230417820A802304170864814
:103650004230817820A80230817083484230C1789E
:1036600020A80230C17080484030817920A8817143
:10367000C720382214A90E906846FCF76BFD10A8ED
:103680000FC8FFF78FFF7848FEF7D2FD3D2277493C
:1036900010A8FCF75FFD75482030417F18A84177DE
:1036A00072482030817F18A8817770483E30417879
:1036B0001FA8023041706D483E3081781FA802304B
:1036C00081706A483E30C1781FA80230C1706748D7
:1036D0004030817820A8817064484230417820A829
:1036E0000230417061484230817820A802308170F8
:1036F0005E484230C17820A80230C1705B4840303B
:10370000817920A881715A48382214A90E90684600
:10371000FCF720FD10A80FC8FFF744FF5348FEF741
:10372000B3FD3D22534910A8FCF714FD5148203049
:10373000417F18A841774F482030817F18A88177B2
:103740004C483E3041781FA80230417049483E3015
:1037500081781FA80230817046483E30C1781FA88A
:103760000230C17043484030817820A881704148C0
:103770004230417820A8023041703E484230817882
:1037800020A8023081703B484230C17820A8023026
:10379000C17038484030817920A88171344838227E
:1037A00014A90E906846FCF7D5FC10A80FC8FFF7C7
:1037B000F9FE3048FEF73CFD3D222F4910A8FCF7EA
:1037C000C9FC2D482030417F18A841772A48203075
:1037D000817F18A8817728483E3041781FA80230A1
:1037E000417025483E3081781FA802308170224800
:1037F0003E30C1781FA80230C1701F484030817828
:1038000020A881701C484230417820A802304170C5
:1038100019484230817820A8023081701648423021
:10382000C17820A80230C17013484030817920A8A7
:1038300081711248382214A90E906846FCF78AFC60
:1038400010A80FC8FFF7AEFE0B48FEF71DFD7D2246
:1038500012010B490B48FDF78BFC22B010BD000094
:10386000F80F0020080000207C1400200C15002018
:10387000E7030000C414002054150020CF07000007
:1038800058000020F8130020F8B582B28BB2040C67
:103890000D0C10465843002126465E43370C360473
:1038A0008019794116466E43370C360480197941E8
:1038B00026466E438919F8BD10B5002819DB1A4A4F
:1038C00003231B02D21883089B00D2588307DC0E07
:1038D000FF23A3409A438B071B0E8407E40EA340EB
:1038E0001A43114B032424021B198408A4001A5103
:1038F00018E00E4A03071B0F083B9B089B00D25899
:103900008307DC0EFF23A3409A438B071B0E84071B
:10391000E40EA3401A43054B0407240F083CA408F7
:10392000A4001A5110BD000000E100E01CED00E011
:10393000FDF73CFFFFF71EFCFFF7A0F9FFF784F946
:10394000FFF732F9FFF77CFAFFF73CFAFFF700FACE
:10395000FFF71AFA00240EE004210920C006FDF743
:1039600002FF10210920C006FDF7FDFEC820FDF76B
:10397000C5FD601C84B2142CEEDBFFF71FFE03E0D4
:10398000FFF7AEFAFFF734F8FAE7000070B542002F
:1039900064414B005C41120E39D01B0E38D0FF2A17
:1039A0003CD0FF2B3AD040024902400A490A0600A7
:1039B00045184E43000A090AD2184843ED017F3AE0
:1039C0000104731A4019190C4318990F04D00121EE
:1039D0005B0849075B1A521CD80904D3401CF50345
:1039E00001D19D0607D0FF2A08D2D50506D0E407ED
:1039F0002043401970BD0125A843F4E7002A01DCEB
:103A0000E00770BD2402FF202043C00570BD1B0EDF
:103A1000FF2A03D0FF2B01D0E00770BDFF26450031
:103A20003606B54206D84D00B54203D8D218FF2A53
:103A300000D0E7E7004870BD0000C07F050550508A
:103A4000000000000000000001020304060708094E
:103A50000000000001020304818283848586878838
:103A6000898B8C8D8E8F919293959697999A9C9D28
:103A70009FA0A2A3A5A7A8AAACAEB0B2B3B5B7B990
:103A8000BCBEC0C2C5C7C9CCCED1D4D7D9DCDFE259
:103A9000E6E9ECF0F3F7FAFEB83A0008000000207F
:103AA00058000000F4000008103B000858000020F7
:103AB000A81B000010010008001E0AC8C800000072
:103AC0000000000000000000000000400000004076
:103AD000333323406400640064006400000000008D
:103AE000FF00000000000000000000000000FFFFD9
:103AF00000000000010000000000010000000000C4
:103B000000000000040000000100000000127A0024
:04000005080000B13E
:00000001FF
